:1000000000800020BD010000C91800008118000018
:10001000811800008118000081180000811800007C
:10002000811800008118000081180000C918000024
:10003000C918000081180000F9290000FD290000FE
:10004000C9180000C9180000C9180000C91800002C
:10005000C9180000C9180000C9180000C91800001C
:10006000C9180000C9180000C9180000C91800000C
:10007000C9180000C9180000C9180000C9180000FC
:10008000C9180000C9180000C9180000C9180000EC
:10009000C9180000C9180000C9180000C9180000DC
:1000A000C9180000C9180000C9180000C9180000CC
:1000B000C9180000A5160000B1160000B516000012
:1000C000C1160000C5160000C9160000C9180000BE
:1000D000C9180000C9180000C9180000C91800009C
:1000E000C9180000C9180000C9180000C91800008C
:1000F000C91800001D350000C9180000C91800000B
:10010000C9180000C9180000C9180000C91800006B
:10011000C9180000C9180000C9180000C91800005B
:10012000C9180000C9180000C9180000C91800004B
:10013000C9180000C9180000C9180000C91800003B
:10014000C9180000C9180000C9180000C91800002B
:10015000C9180000C9180000C9180000C91800001B
:10016000C91800002D1D0000C9180000C9180000A2
:10017000C9180000C9180000C9180000C9180000FB
:10018000C9180000C9180000C9180000C9180000EB
:10019000C9180000C9180000C9180000C9180000DB
:1001A000C9180000C9180000C9180000C9180000CB
:1001B000C9180000C9180000C9180000564B4CF2BD
:1001C000205210B51A804DF628121A8000BF00BFC9
:1001D00001F07EFB514B4FF010621A60504A9A605A
:1001E000504ADA60504A136813F4807304D14F49BF
:1001F0000B604FF4A85313604D4B1A78110703D5C9
:100200001A7842F008021A704A4B4B492A221A7097
:100210004A4A4B4B8B4204D252F8040F43F8040B6A
:10022000F8E7484B484900228B4202D243F8042B9E
:10023000FAE74649464A002352F8230041F82300D2
:1002400001336F2BF8D1434B434A802103F8011B44
:100250009342FBD1414B3D4A1A60414B8A221A70AE
:10026000A3F5805324225A70A0221A709A7992071B
:10027000FCD59A79D406FCD43A4A937903F00C035E
:10028000082B384BF9D103221A7140225A719A79FE
:100290009006FCD5334A9179324B4906FBD5324A58
:1002A000324911600221516020221A709A7902F0BD
:1002B0000C020C2AFAD12E4B2E4A1A602E4B2F4AD2
:1002C0001A6000225A60072243F8042C2C4AC3F813
:1002D0000C2D62B601F002FC144B1B68DA0705D541
:1002E000284801F08FFB284B284A1A60284B1B78BE
:1002F0005B0609D5244C254B22689A4204D121483B
:1003000001F080FB0023236003F064FA01F0E6FAB9
:1003100002F018FCFEE700BF0E20054030800440CC
:10032000823F04000100002B10D0034014D0034092
:1003300002D0074000E007408C90FF1FCC46000031
:100340002087FF1F8C90FF1F70A4FF1F0082FF1FDC
:100350000000000000E400E05FE400E008ED00E0E1
:100360000050064000400640448004400000030165
:1003700004800440C010050014E000E0FF76010096
:100380000000202003F08B611CE00340A5C3945AB9
:1003900000F00740FFFFFFFFFFFFFFFFFFFFFFFF32
:1003A000FFFFFFFFFFFFFFFFFFFFFFFFFFFFFFFF5D
:1003B000FFFFFFFFFFFFFFFFFFFFFFFFFFFFFFFF4D
:1003C000FFFFFFFFFFFFFFFFFFFFFFFFFFFFFFFF3D
:1003D000FFFFFFFFFFFFFFFFFFFFFFFFFFFFFFFF2D
:1003E000FFFFFFFFFFFFFFFFFFFFFFFFFFFFFFFF1D
:1003F000FFFFFFFFFFFFFFFFFFFFFFFFFFFFFFFF0D
:10040000FFFFFFFFFFFFFFFFFFFFFFFFDEF9FFFF23
:1004100010B5054C237833B9044B13B10448AFF33E
:1004200000800123237010BD8C90FF1F000000008E
:10043000D0460000084B10B51BB108490848AFF37F
:1004400000800848036803B910BD074B002BFBD0A0
:10045000BDE81040184700BF000000009090FF1F4B
:10046000D04600008C90FF1F0000000041F2040203
:100470000221054B8152012210B411217F241A70F0
:100480000471417110BC7047A8A0FF1F704700BFE6
:1004900041F204020221054B8152012210B41121C4
:1004A0007F241A700471417110BC7047A8A0FF1F0F
:1004B00041F204020221054B8152012210B41121A4
:1004C0007F241A700471417110BC7047A8A0FF1FEF
:1004D00041F204020221054B8152012210B4112184
:1004E0007F241A700471417110BC7047A8A0FF1FCF
:1004F00041F204020221054B8152012210B4112164
:100500007F241A700471417110BC7047A8A0FF1FAE
:1005100070B541F20A0500F10A060446425B09483B
:10052000314601F0D9F84FF480520021304603F0F3
:1005300073FC42F20E010023034A63546353012308
:10054000137070BDA890FF1FA9A0FF1F70B50424F1
:10055000ADF5856D05460E4622460DEB04001449A7
:1005600001F0BAF822460DEB040104A800F0F2FAFB
:100570002346314604A802AA00F044FB0DEB040117
:10058000224687A800F0E6FA05F5805187A82346A1
:1005900003AA0C3100F00EFB224602A903A803F0C7
:1005A00009FC003018BF01200DF5856D70BD00BF3E
:1005B00064430000F0B50C78012C83B0034625D0CD
:1005C000022C16D141F20A06855D002D42D0012D84
:1005D0001AD101310746FFF7B9FF002846D041F292
:1005E00004012C4ABC5567237C7115707C523B7109
:1005F0000AE041F2040202212648995201247F2197
:100600003122047019715A7103B0F0BD41F20A0130
:10061000425C012AF8D82048204A00680090009DDA
:1006200012681C485C7141F20C066A4041F20405F4
:100630005C544FEA122E9A71170C9A516721120ED0
:10064000062683F807E01F725A7204705E53197110
:1006500003B0F0BD41F204020E489C527F210124F8
:100660002422047019715A7103B0F0BD0A4B0B4A71
:100670001B6801931268019B064941F20C06534026
:1006800041F20400BB517F2235233C520D703A7178
:100690007B71B9E7A8A0FF1F60A2FF1FB0A0FF1FDA
:1006A00070B5254886B000F065FD18BB234D2C7849
:1006B000002C32D1224D2B782BB9224A13680133FA
:1006C000136006B070BD204E204A3368106841F2B6
:1006D00004011A1D5B5C00924FF4E861224600F0B1
:1006E000C7F930684FF480520430214603F094FB80
:1006F0002C70E2E702A9104800F072FD029BB3F5EE
:10070000A07F12D040F639029342CFD10B4D104B4F
:100710002C7801221A70002CCCD00B4B0D49186894
:1007200000F09CFA00232B70C7E7084B02A9186859
:1007300000F0CCF8BAE700BFBCA0FF1FA9A0FF1FC4
:10074000A8A0FF1FB0A0FF1FB4A0FF1FACA0FF1FF9
:10075000B8A0FF1FA890FF1F00B583B0002300932F
:10076000034A0449044800F04BFC03B05DF804FB65
:1007700058A2FF1F90D00300BCA0FF1F70B54FF41C
:10078000165182B01548164D164E02F04FF942F23E
:10079000100002F0DFF91449044600F033F8134B5F
:1007A000134A226041F210001C6002F0D3F941F2BA
:1007B00010020021044603F02FFB0E4B0E481B686D
:1007C000019341F20A01002363540C4A0199266007
:1007D0002C600370116002B070BD00BF6887FF1FFE
:1007E000B4A0FF1F48430000B8A0FF1FACA0FF1F2C
:1007F0003C43000060A2FF1FA9A0FF1FB0A0FF1F85
:10080000704700BF30B400F5005441F20A05044AB5
:10081000026000224253A2814160028130BC7047D5
:100820007043000070B50546487A2881CC79023CB7
:10083000A4B2B4F5805F0DD241F20A0605F10A00B8
:10084000AB5B224618440A3100F046FFAB5B2889B7
:100850001C44AC53063880B22881C0B270BD00BFC2
:100860002DE9F0410489CB799C4205460F460ED212
:1008700041F20A060A30AB5B22460931184400F007
:100880002BFFAB5B1C44AC530020BDE8F081013B67
:100890009EB2B6F5805F06D300230134E41A2C81A2
:1008A0000120BDE8F08141F20A080A3035F808302D
:1008B00032461844093100F00FFF35F808302C8912
:1008C0001E4425F80860FB79E7E700BF2DE9F041F9
:1008D000CB79082B044608D10D7A05F0F005102DD0
:1008E0000E4610D0202D3BD015B34FF4805200217E
:1008F00004F10A0003F090FA41F20A030022E252E6
:100900000020BDE8F0814FF4805200210A3003F04E
:1009100083FA41F20A030022E25231462046FFF7F1
:1009200081FF42F20E030122E2540020BDE8F08173
:1009300000F10A0841F20A07294640464FF4805266
:1009400003F06AFAE553F579013DADB2B5F5805F84
:1009500010D3236820461B6898470020BDE8F0812B
:1009600042F20E03C35C002BBFD0FFF779FF0028D3
:10097000C6D1EEE72A4606F10901404600F0ACFE7A
:10098000E35B1D44E553E4E710B584B002A89DF88D
:100990000640009162F3000406998DF807301A466C
:1009A0008DF8064000F098FE6946034800F01AFDF5
:1009B000002004B010BD00BFBCA0FF1FF0B585B083
:1009C0000E46002102914FF0100E05461746039186
:1009D00002AC0A998DF8093006220DF10A008DF853
:1009E00008E000F079FE00943A4631462846082394
:1009F000FFF7CAFF05B0F0BDF0B585B005469DF81C
:100A000028E0002003F00F03029043F020030E467D
:100A100017460B990390724602AC0DF109008DF850
:100A2000083000F059FE00943A4631462846082323
:100A3000FFF7AAFF05B0F0BDF0B585B003F00F0ECB
:100A400005460E4617460A991A4602AC00230DF1D8
:100A50000900029303938DF808E000F03DFE009436
:100A60003A46314628460823FFF78EFF05B0F0BD11
:100A70002DE9F04F85B0062B0E9E64D91C461D460D
:100A80000393334B93462246A3FB0223C3EB040894
:100A90008146062003EB58088A4602F0C3FE314621
:100AA0000446062200F018FE2B4600945A46514692
:100AB0004846FFF783FF204602F0BCFEC8F38708D4
:100AC000063600250224072002F0ACFE314607223C
:100AD000074600F001FE072300935A46234651467D
:100AE000019748460135FFF787FFEDB2384602F01F
:100AF000A1FE0134A84506F1070604F00F04E2D870
:100B00000399134B0A46A3FB0223CD1A03EB5505A9
:100B1000AD08C5EBC5054D1BEDB2284602F082FEBF
:100B20002A460746314600F0D7FD23465A4651462D
:100B30008DE8A0004846FFF75FFF384602F07AFED6
:100B400005B0BDE8F08F05B0BDE8F04FFFF774BF0A
:100B500025499224F8B5012300240546C0F8003247
:100B6000C0F804320F46164680F808424FF48072EF
:100B700080F809420E4900F0AFFD23462246681E68
:100B8000B2FBF6F106FB112110F8014F795C21440C
:100B90000B44DBB20132E95C0170B2F5807FEC54AA
:100BA000EED1294605F58070BDE8F84000F094BD0F
:100BB00074430000F0B5D0F8006290F80842334466
:100BC0009E421CD20139013AF5B2013610F805E017
:100BD0007444E4B29E42075D475500F804E0455D69
:100BE00011F8017F7544EDB2455D85EA070502F80D
:100BF000015FE9D1C0F8003280F80842F0BD334609
:100C0000F8E700BFF0B5D0F8047290F809423B4411
:100C10009F4220D200F580750139013AFEB20137BA
:100C200015F806C06444E4B29F4215F804E005F8E4
:100C300006E005F804C0AE5D11F801EF6644F6B2B7
:100C4000AE5D86EA0E0602F8016FE7D1C0F8043205
:100C500080F80942F0BD3B46F8E700BF0B78103B37
:100C6000272B31D8DFE803F0183030303030303007
:100C7000303030303030303030301C303030302098
:100C800030303030303030303024303030282C1498
:100C9000036801319B691847036801311B681847D5
:100CA000036801319B681847036801315B68184786
:100CB00003680131DB681847036801311B69184775
:100CC000036801315B691847704700BF0020704717
:100CD000704700BF30B40B46054603C905EBC2049C
:100CE000043484E80300197911F0010F296812D146
:100CF0001C6812481023843113FB0211A404204005
:100D000008602968803113FB021230BC136823F499
:100D100000131360704718688431102313FB02110D
:100D200020F0604008602968803113FB021230BC5B
:100D3000136843F400131360704700BF0000FC1FEA
:100D40004388826810B59BB20446084602EB031143
:100D5000102200F0C1FC6388A1889BB2013393FB91
:100D6000F1F201FB12339BB26380012010BD00BF82
:100D7000F8B5204C204A21790546034601F0FD01D3
:100D800002202A606FF30001002285F894011D27DC
:100D900020261020C5F8A020C5F8F870A5F89661A7
:100DA000A5F8980121712260114643F8B02F05F192
:100DB000F00243F8041F93424FF00004F9D1C5F844
:100DC0008440C5F88840C5F88C40C5F8904098220A
:100DD000214605F1FC0003F01FF81F220F2385F8C0
:100DE000FC40C5F80841C5F80021C5F80C3128467B
:100DF000F8BD00BF58A2FF1F0040024038B5D0F830
:100E0000A03003B138BD0446B0F89801000101F0EC
:100E1000A3FED4F8B020C4F8A000AAB10023B4F80F
:100E20009851B4F89611A4F89430C4F89C00A4F832
:100E30009630C4F8AC20A4F8A430A4F89850A4F8D4
:100E4000A810A4F8A63038BDB4F89601000101F04E
:100E500083FEC4F8B0000246D4F8A000DEE700BF6D
:100E6000F8B52C4BB3FBF1F5052DB3FBF5F6A1EB73
:100E700006064BD900229E461746931CB5FBF3F499
:100E8000192C02F1010203FB04F3F6D8BEFBF3F3C5
:100E9000CB1A002BB8BF5B42B3422EDB2FD0052C00
:100EA000EBD87B1CB5FBF3F5053D142D1CD8B6F52E
:100EB000967F19DC184A006805EB45055319515D0A
:100EC0005A789B7801F0070141F48001D20441F483
:100ED000804102F460121B040A4303F4E02313432D
:100EE00043EA07674760F8BD39210C4801F05EFC12
:100EF0000B48BDE8F84001F011BE1E4617460B2C0A
:100F0000CDD9122C9CBF1E461746C8E701230027E7
:100F1000C8E700BF0024F4002087FF1F74440000CE
:100F20008087FF1F0F2930B404462DDC69BBD0F841
:100F3000A030012084F8940123B3002210252368F7
:100F4000803315FB02330132196801F4001141F0BE
:100F50008061196094F89401C0F11003D2B2DBB241
:100F60009342ECD80F2B0DD810204FF0006122686F
:100F7000803210FB03220133DBB2102B1160F6D15B
:100F800094F8940130BC70470F21D4F8A03084F855
:100F900094111BB11029D0D10023E5E70846F1E7F1
:100FA00090F89431C3F11003DBB29A4220D2036867
:100FB00010B41C68E4011CD41C6844F080441C601C
:100FC0000468236843F08053236004682368DB01CE
:100FD000FCD504F5086404EB820211600268136812
:100FE00023F08053136002681368DB01FCD410BC4B
:100FF000704703F5086303EB820210BC1160F7E74A
:101000002DE9F0410546164698460C469DF81870A5
:10101000FFF7F4FE2A68524B9A4200F08F80514A43
:101020004F49137843F0800313702B688B427BD0B9
:101030005A6822F400525A602A68136843F08043C9
:1010400013602A68136823F0004313602A6813684A
:10105000DB02FCD4136883F0007313602B681A68FA
:101060009701FCD41A68D001FCD51A6842F400320A
:101070001A6021462846FFF7F3FE2A68136843F4F6
:101080008033136095F89431102B18BF002404D1DD
:101090001DE00134E4B29C4219D2224600212846C8
:1010A000FFF77EFF95F89431C3F11003DBB2A34242
:1010B000EFD9224631462846FFF70CFE95F89431C9
:1010C0000134C3F11003DBB2E4B29C42E5D32A68D9
:1010D000136823F0805313602B681A68D101FCD485
:1010E0001A681201FCD495F894112846FFF71AFFEC
:1010F000D5F8F83003F1604303F5644340221A70D9
:10110000D5F8F82053099B0003F1604303F56143D0
:1011100002F01F02012101FA02F21A602B684FF659
:10112000FF729A62BDE8F081A2F5E732A2F5E272A1
:10113000136843F0100313602B6879E7B8F1010FCF
:1011400006BF03F518334833074B4FF40072012FE5
:101150001A600CBF054B064B4FF400721A605EE735
:101160000040024000500640309004404CA0044033
:1011700034900440D0F8F83030B45C09A10001F19B
:10118000604101F5614101220968144D03F01F031C
:1011900002FA03F3194008BF002280F8F42045F852
:1011A0002430B0F8A430B0F8A6209BB292B29B1ABB
:1011B00044BFB0F8A8209B1869B1D0F8F8104A09CC
:1011C000920002F1604202F5614201F01F0101202C
:1011D00000FA01F11160184630BC704780E100E070
:1011E000F8B50446D0F8F8001A4F4609B30003F1E9
:1011F000604303F5614301221D6800F01F0002FAFD
:1012000000F31D4214BF1546002584F8F45047F83A
:101210002630B4F8A420B4F8A63092B29BB29A4219
:1012200016D004F1A400FFF78BFD94F8F45075B1CB
:10123000D4F8F82053099B0003F1604303F56143A0
:10124000012102F01F0201FA02F21A60F8BDF8BD96
:101250000020ECE780E100E070B48B7913F0010F1F
:10126000036828D00C681025843315FB023324F062
:10127000604412FB05F21C6003688C68883324BA52
:101280009C500368CC688C3324BA9C508B79DC0763
:101290001DD513F0020FCB7901684FEA034303F425
:1012A000702301F1800114BF43F0476343F04663AC
:1012B0008B5070BC70470D680E4C1026843316FBA3
:1012C0000233AD042C4012FB06F21C60D4E713F08D
:1012D000020FCB7901684FEA034303F4702301F155
:1012E000800114BF43F0416343F040638B5070BCF6
:1012F000704700BF0000FC1F0368F0B58033102763
:1013000017FB02338C791D688D80C5F34056C5F3F9
:101310000343C5F3005E66F30004CB7106686EF309
:10132000410404F0FB046FF3C70417FB02668C71E1
:1013300091F806E0D6F884401EF0010F24F06044D6
:101340000C60C5F3036504BFA40C0C60062D25D00A
:10135000D6F88840CC72260A250C042B4FEA146478
:101360008E724D720C7210D900688C3017FB02021D
:10137000072B1268CA734FEA12244FEA12404FEA51
:1013800012628C7348730A7307D807330B44002228
:101390000F3103F8012F8B42FBD1F0BD8C7944F063
:1013A00004048C71D4E700BF38B50B888D88488859
:1013B0009BB2013393FBF5F405FB14339DB283B26A
:1013C0009D420CD00B8888680C469BB2114600EBFE
:1013D0000310102200F080F92580012038BD002084
:1013E00038BD00BFF8B50446D0F8F8002B4E4509CB
:1013F000AB0003F1604303F5614301221F6800F075
:101400001F0002FA00F31F4208BF002284F8F420F4
:1014100046F82530B4F89430B4F896209BB292B2D6
:101420009A4218D00A46204604F19401FFF7BCFF07
:1014300094F8F43073B1D4F8F82053099B0003F109
:10144000604303F56143012102F01F0201FA02F239
:101450001A60F8BDF8BD94F89421C2F11002D2B21E
:101460000F2ADFD802F12D0504EB8505130104E0F6
:101470000132102A03F11003D4D055F8040B0028D0
:10148000F6D120688030C058C0F303600828EFD13F
:101490002046D2B2FFF7E0FE0120C9E780E100E07C
:1014A0002DE9F04F026889B0136B0393834605461C
:1014B00000F1B40A0024994608E0022B3AD0013426
:1014C000102C05F108050AF1040A2ED029FA04F3BC
:1014D000D907F4D5270102F18003DB59C3F3036375
:1014E000062B27D0082BE8D1DAF8000008B90BF159
:1014F00094000188438889B29BB2994200F09D8094
:101500000188438889B29BB29942D8D004A9FFF7D9
:1015100017FC002840F0B280DBF800200134102CCA
:1015200005F108050AF1040AD0D1039B136309B041
:10153000BDE8F08F04A9E2B25846FFF7DDFE9BF844
:10154000FC306BB1D5F814319DF8162001335207E9
:10155000C5F8143104D5D5F818310133C5F8183160
:10156000002201238DE88400A34002950BF1800640
:101570000BF190081D4656F8040F28B1426812EA94
:1015800005032BD1002A3FDBB045F4D1009B019F1E
:10159000029D002B3FD09BF8FC3083B1BBF8A430F8
:1015A000BBF8A6109AB28BB2D31A44BFBBF8A820DE
:1015B0009B18DBF804219A4238BFCBF804310BEBBF
:1015C000C4031B7ADB0714D5DBF800306A68843368
:1015D00022F06042DA51DBF8002070E703681F68F0
:1015E0002D4B9F4245D10020009B1843C3B200936E
:1015F000CAE76968DBF80030284A890484330A4066
:10160000DA51DBF800205AE702681768224A97424D
:101610003CD11846E8E704AA0BF1A4015846FFF7AD
:10162000C3FE0028B7D19BF8FC30002BC7D0DBF8F5
:1016300008310133CBF80831B0E70127A74047F064
:1016400000470BF180060BF1900856F8040F10B11B
:1016500043681F4204D1B045F7D1DBF800205DE7B5
:1016600003680F4A5B689342F5D0002221469847F1
:10167000F1E70023224604A9B847B5E7E2B204A97E
:101680005846FFF7E9FDDBF8002018E74FF0FF327E
:1016900004A9B847A8E700BFCD0C00000000FC1F5C
:1016A000D10C00000148FFF7FBBE00BFBCA0FF1F2C
:1016B000704700BF014B1B681B6A7047BCA0FF1F2F
:1016C000704700BF704700BF704700BF002101484E
:1016D000FFF74EBBBCA0FF1F01B441EA000313F0AB
:1016E00003036FD1403A41D351F8043B40F8043B27
:1016F00051F8043B40F8043B51F8043B40F8043BEC
:1017000051F8043B40F8043B51F8043B40F8043BDB
:1017100051F8043B40F8043B51F8043B40F8043BCB
:1017200051F8043B40F8043B51F8043B40F8043BBB
:1017300051F8043B40F8043B51F8043B40F8043BAB
:1017400051F8043B40F8043B51F8043B40F8043B9B
:1017500051F8043B40F8043B51F8043B40F8043B8B
:1017600051F8043B40F8043B403ABDD2303211D32B
:1017700051F8043B40F8043B51F8043B40F8043B6B
:1017800051F8043B40F8043B51F8043B40F8043B5B
:10179000103AEDD20C3205D351F8043B40F8043B2B
:1017A000043AF9D204320AD0D2071CBF11F8013B27
:1017B00000F8013B03D30B7803704B78437001BCF6
:1017C000704700BF0C2A4AD310F0030311D0C3F1B5
:1017D0000403D21ADB071CBF11F8013B00F8013BE0
:1017E00007D311F8013B00F8013B11F8013B00F869
:1017F000013B11F003033FF475AF30B4043AC91A4A
:10180000C3F1040C51F8044B022B19D0032B0BD05D
:10181000240A51F8043B1D0644EA050440F8044B31
:101820001C46043AF4D216E0240E51F8043B1D0283
:1018300044EA050440F8044B1C46043AF4D20AE09A
:10184000240C51F8043B1D0444EA050440F8044B01
:101850001C46043AF4D20432B1EB0C0130BC043A19
:10186000A0D3013A11F8013B00F8013BF9D20B7803
:1018700003704B7843708B78837001BC704700BF56
:1018800008B5104C08E0236859050DD423681A05E3
:101890000FD42368DB0411D423685803F3D500F078
:1018A00045FA23685905F1D501F038FE23681A0579
:1018B000EFD500F009F82368DB04EDD500F004F85B
:1018C000EAE700BF3480044008B5FFF7D9FF00BF46
:1018D000014B10221A80704700200540704700BF5E
:1018E000094908B50B6830B16A461844A2F5805220
:1018F000904202D20860184608BD01F065FF0C2333
:1019000003604FF0FF3008BD6087FF1FEFF31380C7
:1019100070B9EFF310836BB9EFF305825AB94FF446
:101920008070EFF311832BB1984228BF184670479F
:101930004FF0FF3070470F2A01D81846F1E7014BEE
:10194000D05CEEE7F0E300E010B40F4B53F830202A
:1019500092F880422CB1012369B182F8803010BC2A
:10196000704703EBC0035B681A6841B922F00202BA
:101970001A6010BC704782F8003110BC704742F00A
:1019800003021A6010BC7047B04400001C4A02EB0E
:10199000C00301295B6811D004291BD052F8300024
:1019A000002280F8802229B1022920D0032922D0E8
:1019B0001A6070474FF480721A60704752F8300016
:1019C0004FF4A27280F880121A601A6822F0200286
:1019D0001A60704752F830104FF4A272012081F85B
:1019E00080021A601A6842F020021A60704740F2C2
:1019F00003121A6070474FF481721A60704700BF7B
:101A0000B044000030B4054B054D064C00221021B7
:101A10001A602A602060196030BC704714D00340FF
:101A200004D0034000D00340212801D8FFF78CBF29
:101A3000704700BF212801D8FFF7A8BF704700BF3B
:101A40002DE9F843054672B6204F214B214A1B6809
:101A50003C68126862B6520102D5322B88BF01344D
:101A600095B3C3F5BB331C4EDFF86490DFF8648098
:101A7000FF334FF47A72A6FB031302FB04F404EB6A
:101A8000931472B6D9F800103A68D8F800E062B63C
:101A9000C1F5BB33FF33A6FB03031EF0806FC4EB1D
:101AA00093134FF47A7002D0322988BF013200FBC1
:101AB0000233B3F57A7F04D3013D05D004F57A747F
:101AC000DFE701F061F8DCE7BDE8F88360A2FF1F03
:101AD00018E000E004ED00E0ABAAAAAAF8B52D4B8F
:101AE0002D49DFF8D0E0DFF8D0C02C4E2C4D2D4C26
:101AF0002D4A2E4F4FF4000018604FF08070186090
:101B00004FF0007018604FF0806018604FF0006078
:101B100018600020086028234BF6FF71CCF80010F5
:101B2000CEF80030336013602B6023603B60B362FB
:101B30009362092245F8242CC4F8D80F05F57F6577
:101B4000C7F8D41F07F5FF2707F5FA67C6F8F83F6F
:101B50002B6006F5FF26C4F8D42F05F5FD2504F506
:101B6000FF24386006F2F4761148316005F5FF6510
:101B700004F5FD642B602360026001F07BF81920FE
:101B8000FFF75EFF00F00CFD40F21310BDE8F840D7
:101B9000FFF756BF08E100E00480034014800340D3
:101BA000248003402C8003401C8003403480034089
:101BB00000800B400C80034008800340431E032B31
:101BC00014D872B60A4951F8230068B170B4094CB0
:101BD000058834F81320466841F82360521B24F826
:101BE000132062B670BC704762B670470020704721
:101BF000BCA2FF1F58A4FF1F013803280BD872B6E0
:101C0000074B53F8203043B100205B680130002BB4
:101C1000FBD162B67047002070471846F9E700BF55
:101C200010A3FF1FF0B472B61A491B4E012311F81E
:101C3000014B194F9A00240742F0010505D556F8CB
:101C4000324064B156F83520BAB10133052BEED1DC
:101C500062B6124B00221A70F0BC00F01BBD0F4C94
:101C60000F4D217807EB431308300139586021707C
:101C700047F8325062B6F0BC7047084A09491378F9
:101C800007EBC5040830013B6060137047F835105E
:101C900062B6F0E7544600000080FF1F39A3FF1F23
:101CA00088004000C8004000431E032B1DD81B4A7B
:101CB000400140F0100030B4104472B6184CE25CA1
:101CC000032A1BD8DFE802F00212151703220D8841
:101CD000E25410F0080F14BFC823882343EA0543D9
:101CE00008314160036062B630BC704708300222A0
:101CF000EDE70522EBE708300422E8E7094A52F84D
:101D0000230038B1084A52F82300416042F82310FA
:101D100062B6E9E742F82310034AF7E70080FF1FA5
:101D200048A3FF1F10A3FF1F20A3FF1F2DE9F04FA3
:101D3000DFF814B3DFF814A387B044E0AD4F4FEAE7
:101D4000930807EBC809013ED9F8042003F0080303
:101D5000F6B2A2F1080003F0FF04002B40F003816B
:101D600057F838301B0C99B222F8081C002B00F0F1
:101D7000F180A14B22F8064C42F8044C53F826207F
:101D8000002A00F06C819D4D55F8263058609C4C1F
:101D900045F8260034F81630194424F8161000F0DF
:101DA00059FC002800F05481964A974B19F0080F0F
:101DB00000F1080018BF1346C9F8040047F838308E
:101DC00008238BF800309BF80040E4B260071BD575
:101DD0008E4B1B78ABB18E490A7802F0FF032AB113
:101DE000013BDBB20B70002B00F0B58389490A7808
:101DF00002F0FF032AB1013BDBB20B70002B00F0B5
:101E0000F68004238BF8003004F0080303F0FF028F
:101E1000002B00F0D5809AF80030DBB21E098DD17E
:101E20009C08744F57F8342007EBC401C2F38302B7
:101E3000013A49680C2A7ED8DFE802F081817D7D75
:101E40007D7D7D7D427D7D7D07000868724B734DF1
:101E500001936C4B4A68724E47F8343081B240F2BD
:101E600081646D4B6A60286000220120A1423A61C2
:101E70001A60BA61307000F2F680B1F5D06F80F070
:101E8000E882B1F5817F00F0D38200F2D881802909
:101E900000F04D81822940F09282A988614B01F0C7
:101EA0007F01042900F28C825F4C89000B44227070
:101EB00062701A78930740F13883207002203AE16B
:101EC000554B01931A6862B3584B5949544E1888C0
:101ED0000C7896F800E04028054684F0010C28BFF5
:101EE000402544F00204BEF1000F81F800C0A0EBD1
:101EF000050007EBC40C0CBF8821C82180B28EF00E
:101F0000010E41EA0541CCF80420188086F800E073
:101F10002A4447F8341010B9402D18BF0022019B05
:101F20001A603E4B1A88B2F5A06F04D100219A784E
:101F30005970404B1A70404A0123137040E7374AEA
:101F4000158842F22100854200F052812D4A47F85F
:101F50003420F0E72B4A2C4B19F0080F18BF13461A
:101F600047F838302CE700F095FB344A344952F8F2
:101F70002630002B00F02D8158688C5D42F8260039
:101F800003F10802C9F80420032C05D8DFE804F0A7
:101F9000120F150204228A551A8819F0080F0CBF77
:101FA0008823C82343EA024347F8383008E702226F
:101FB0008A55F1E703228A55EEE705228A55EBE7B9
:101FC000E00700F17881210600F1A281A20706D581
:101FD0001C4A1D4913780220DBB213700870E30617
:101FE00002D5194B10221A7007B0BDE8F08F00F02F
:101FF000BDFC06E70080FF1FBCA2FF1F68A2FF1FF9
:1020000058A4FF1FC80040008800400044A3FF1FE1
:10201000CDA2FF1F4CA3FF1F64A2FF1F30A3FF1F11
:10202000CCA2FF1FC02007403CA3FF1F78A2FF1FC8
:1020300038A3FF1F982007409420074010A3FF1FDC
:1020400048A3FF1F882007408020074090200740BA
:10205000B74A47F83800137801331370B0E643F8F5
:102060002600B44D93E642F22104A14200F0AD8077
:1020700000F20E81B1F5086F00F05481B1F5106FD8
:1020800040F09D81AC4AA9781170AC4D042402E067
:102090000134142C0CD057F834301906F8D505EB60
:1020A000C40301345868083800F0F4FA142CF2D153
:1020B000A349A44BA44A0291A449A54C9D4D039465
:1020C00005964FF0000988461C4616460495206880
:1020D00028B1456800F0DEFA2846002DF9D100232A
:1020E0002360049B30681A46002342F8293028B147
:1020F000456800F0CFFA2846002DF9D10022326061
:10210000029A98F800301146002241F8042B039AF5
:102110000291023B4FF0000122F81910032B00F24C
:10212000B481DFE813F0E201AE01E201AE01894CB7
:10213000022022706270EA88824280F00D82864915
:102140000D78402A45F0020E944607EBCE0028BFDA
:102150004FF0400C04EB0C0344600293CCEB020004
:102160004FEA0C484FF001090022C82444EA080352
:1021700085F0010447F83E3032700C70DFF8BCE1A6
:10218000764BDFF8D481002840F02081BCF1400F6D
:102190001BD144F0020407EBC403029FDFF89CE16B
:1021A0005F60002A40F02781020442F0880286F82E
:1021B00000900D7007444EF834203B46402804D16F
:1021C0000020674A019910800B60664A0123137052
:1021D000B1E68B5D032B00F2248101A252F823F0BB
:1021E000C11D0000C11D0000052300000B230000DD
:1021F000928862B95C4ACD1D11F8013B02F8013F9B
:102200008D42F9D1594A1268862A00F0C980524994
:10221000524E0878327840F0020580F001000870D4
:1022200007EBC501002A4FF00000486082F0010270
:102230000CBF8821C82147F83510327086E640F27D
:102240000232914240F0B080A98801F07F01042958
:1022500000F2B5806A88002A40F0B180444C8900C1
:102260000C448146217841F0020121700020029047
:1022700080468446044638490D7845F0020E07EB47
:10228000CE03B9F1000F5C600CBF8824C8246DE751
:1022900042F22124A14240F08E80A988002940F01A
:1022A0004281344B344A354C1B68AD78136081460B
:1022B0000A462570DAE72B49204B3148264EDFF8D5
:1022C000B0C0304DDFF8D4E02F4F02240C702F4CFB
:1022D00018605C6098602E48D8601A619A610D237E
:1022E00032702C4C8CF800302B4EFF232B700120C9
:1022F0009F258EF800303A7033702570087007B053
:10230000BDE8F08F00238B555AE501238B5557E527
:102310001749224B80220D2008701A70A2077FF502
:102320005EAE55E6044A0B4C1278227003E700BFFC
:1023300039A3FF1F68A2FF1F44A3FF1F0080FF1FD8
:1023400020A3FF1FBCA2FF1F10A3FF1F48A3FF1F56
:1023500058A4FF1F3CA3FF1F38A3FF1FCCA2FF1FE1
:1023600078A2FF1F942007405FA4FF1F60A4FF1FF7
:10237000C020074060A2FF1F68A4FF1F5CA3FF1FCF
:102380008800400088200740982007407CA2FF1F5B
:10239000D0A2FF1F842007408C20074080200740E8
:1023A000754A0F21117032E7B1F5A06F07D10022F5
:1023B0004FF001095AE742F221329142F7D06F4BB8
:1023C0000F221A706E4A01231370B4E540287FF67D
:1023D000E0AE44F002040EEBC401029E4E60AAB1CE
:1023E00083F80090674A88F80050334640384033FD
:1023F0004EF83420E5E6029B86F80090020442F095
:10240000C8020D7003444EF83420D7E683F80090DC
:10241000029B5D4A88F80050403840334EF8342023
:10242000CFE619F0080F0CBF022303238B55C7E436
:10243000A98801F07F010429C1D86A88002ABED189
:102440004E4C89000C448146217821F00201217014
:102450000CE74E4A5468002CB1D06888B5F804E007
:1024600003E00C325468002CA9D013888342F8D1C1
:1024700053887345F5D1000A03280CBF20781089D2
:1024800059E64FF0010388F8003009F10109B9F16C
:10249000040F04F1040406F1040608F101087FF4B6
:1024A00016AE3B4B059E3B4DDFF8F08000201870C8
:1024B0004FF0010918F8013B05F8043B1A0719D43D
:1024C0004FEA890444F0020244F00304002347F871
:1024D000323047F83430304B9D4209F10109E9D1DF
:1024E00096F8009089F00102C0E64FF0000388F8EA
:1024F0000030CAE700F0AEF818B307EB49134FEA13
:10250000890408305860204B47F8343000F0A2F8B6
:1025100068B144F0010307EBC30208305060194A68
:1025200047F83320CEE78146A0E6022003E6184BA9
:1025300044F001021B7847F83200154A013313704A
:10254000C0E7134B124A1B784FEA8904013347F85E
:1025500034001370DAE700BE4028844628BF4FF0ED
:10256000400C04EB0C03CCEB00004FEA0C48029348
:1025700000224FF001097EE6CDA2FF1FC0200740D8
:1025800094200740C80040008800400058460000E2
:1025900039A3FF1FC4200740D42007405446000041
:1025A0002DE9F04101F0A4F800231F491A4601EB80
:1025B000C30041F833200133142B42604FF0000474
:1025C0001948F4D1194A1A4F13681A491A4D1B4E6B
:1025D000DFF874C0DFF874E0DFF8748043F4802320
:1025E0001360C0F307233B70C0F307430B70000E6A
:1025F000FF2302F528322870D4328CF80030104DB9
:102600008EF800300F483370012388F800307026B0
:1026100081F850404FF40074102107F8183C2E70D8
:1026200004601170BDE8F0810080FF1F3480044019
:102630009C200740B0200740B420074010200740EE
:1026400049E400E008E100E08020074088200740DE
:102650009420074072B60D480268B2FA82F30B2B41
:1026600010DC4FF00041D94022EA0102026062B65C
:10267000074803EBC303DB00C2180021C15010461A
:102680005160704762B60020704700BF6487FF1F2B
:10269000BC83FF1F0D4B0E4AC31AA2FB03231B0969
:1026A0000B2B0CD80B4A127852B972B60A484FF06D
:1026B0000041026821FA03F31A43026062B67047D0
:1026C000064A1278002AF0D0FFF7ACBABC83FF1F8D
:1026D000398EE33839A3FF1F6487FF1F44A3FF1F10
:1026E00038B50F4D286878B143880288C118013386
:1026F00093420C7A02D24380204638BDFFF7CAFFCE
:10270000002320462B6038BD064B1B782BB10320DD
:10271000FFF754FA28600028E6D14FF0FF3038BDAB
:1027200058A3FF1F44A3FF1F10B5094C206818B120
:1027300043881844007A10BD064B1B782BB1032048
:10274000FFF73CFA20600028F2D14FF0FF3010BDB7
:1027500058A3FF1F44A3FF1F044B054A1B68908822
:102760001BB11A885B88D31A1844704758A3FF1FFF
:1027700058A4FF1F0B4B1B789BB110B50A4C206867
:1027800048B1FFF787FF002303202360FFF716FA05
:1027900030B1FFF77FFF0320FFF710FA0028F8D1D0
:1027A00010BD704744A3FF1F58A3FF1F2DE9F04F32
:1027B000DFF8F89083B0012289F80020019169B315
:1027C000DFF8EC80364F019E8346D8F80000B0B3A6
:1027D000344D4488C4F14001B14228BF314604EB76
:1027E000010E00221FFA8EFE2A70761AA0F802E06F
:1027F00000F1080251B1013C224459441BF8014B3D
:1028000002F8014F8B45F9D1B0F802E0BEF13F0F5D
:102810000BD8254A05211170002ED6D1019800232E
:1028200089F8003003B0BDE8F08F402202800146F5
:102830000420FFF739FA0022C8F80020E9E73A78C7
:102840002AB3184D4AF2F9244FF0010A07E0013C7F
:1028500016D02A78A2B900F097F93A78BAB10420D4
:10286000FFF7CAF90728F2D889F800A0FFF7F2FEAF
:10287000C8F800000028ACD10C4B013C1870E8D11E
:1028800001234FF0FF302B7003B0BDE8F08F002321
:102890004FF0FF3089F8003003B0BDE8F08F00BF83
:1028A00044A3FF1F54A3FF1F4CA3FF1F4DA3FF1FF3
:1028B00050A3FF1F00B583B002AB012103F8010D47
:1028C0001846FFF773FF03B05DF804FB38B50E4DF3
:1028D0000E4C28680123237028B140880023237000
:1028E000C0F1400038BD0A4B1B7813B9002020709E
:1028F00038BD0420FFF780F90728F7D8FFF7AAFEB4
:1029000028600028E9D1F1E750A3FF1F4DA3FF1F66
:1029100044A3FF1FF8B5114B1B788BB1104E114D1E
:10292000346801272F7064B10F4A6388002717703D
:10293000214623800420FFF7B7F9376000232B706E
:10294000F8BDFFF787FE084B28B1014604201C7034
:10295000FFF7AAF9F2E71F70F0E700BF44A3FF1FDB
:1029600050A3FF1F4DA3FF1F4CA3FF1F38B50E4BF5
:102970001B7873B90D4C216861B103F0FF054B88DA
:102980000B800420FFF790F9256038BD084B012229
:102990001A7038BDFFF75EFE0028F7D00146BDE88B
:1029A00038400420FFF780B94DA3FF1F50A3FF1F3D
:1029B0004CA3FF1F70B5EFF3108272B60C4C206869
:1029C00080B10C4E00254369236073B19D6102B94B
:1029D00062B6457783689847EFF3108272B6206835
:1029E0000028F0D102B962B670BD3360EFE700BFD6
:1029F00060A3FF1F64A3FF1FFFF7DCBF024A136839
:102A000001331360704700BF60A2FF1F0368C9B2A3
:102A10001B6818470368C9B21B6818470368C9B226
:102A20001B6818470368C9B21B6818474B0803F1B5
:102A3000376303F5D83310B50446B3FBF1F000F06B
:102A40001BFA044B1B7803B110BD2046BDE81040B3
:102A500000F090BE7C87FF1F08B5084600F000FC20
:102A6000012008BD08B5084600F0FAFB012008BDAA
:102A700038B508460D4601F043FA0446014628469B
:102A800000F0F8FB204638BD10B508461446114644
:102A900000F0F0FB204610BD0846114600F01ABEBB
:102AA0000846114600F0FCBD00F012BD08B508460E
:102AB00000F0AEFB003018BF012008BD08B5084685
:102AC00000F084FB003018BF012008BD0846114605
:102AD00000F018BB084600F04FBB00BF084600F0EE
:102AE000F5BA00BF00F090BA10B54B0803F137609B
:102AF000144600F5D830B0FBF1F000F0BDF92046E7
:102B0000BDE8104000F02EBA00F0BCBC00F07ABC6A
:102B100000F064BC00F03EBC00F048BC30B5044698
:102B200083B002252A4601A80549FEF7D5FD236892
:102B30002A4601A95B682046984703B030BD00BF14
:102B40002846000008B5FDF719FEFDF7A9FD00F0C5
:102B50001BF8FAE700F066BE00F064BE704700BFE5
:102B6000FFF708BEFFF7E0BDFFF7BABDFFF7F4BD02
:102B7000FFF7D0BEFFF7AABE08461146FFF716BE04
:102B80000846FFF797BE00BF2DE9F843314E337872
:102B900093B1314F3A787AB90122D9073A7036D4D5
:102BA0009A0719D400225B073A7005D52B4B1A6897
:102BB00012B1EFF305820AB1BDE8F883EFF310819B
:102BC00072B6186818B1264C2278002A2ED0002937
:102BD000F2D162B6BDE8F883DFF8908098F8002063
:102BE000002ADFD0DFF88890002405E0013498F84F
:102BF0000030E4B2A34212D959F824502B68284679
:102C00001B6998470028F1D02B699847EEE7FFF73A
:102C1000A3FDC8B9134B1B781BB93378C0E73378D1
:102C2000C0E7337803F0FE033370B9E745691D60F0
:102C3000012323705DB1AA6101B962B60025457711
:102C4000836898472570B7E700F0BCFDE2E7064BC4
:102C50001D60F1E79087FF1F71A3FF1F6CA3FF1F8B
:102C600070A3FF1F4A88FF1F68A3FF1F20A4FF1F38
:102C700014A4FF1F30B42948294A2A4B2A4D602446
:102C8000E121047011701B78284C082B30D00A2BDE
:102C90002748284937D00C2B0CBF35223D22122360
:102CA0002A60236002600B60234B24491B78244A6E
:102CB000BBB101230B601360224B23491B78234ACD
:102CC000012B26D9042B0FD9082B1ED9102B94BF0A
:102CD000862387230B6013601D4B01221A7030BCC2
:102CE00070470B601360E7E784230B601360F3E722
:102CF00000F58E200F490830012213232A6023603B
:102D000002600B60D0E73922F7E785230B60136080
:102D1000E2E780230B601360DEE700BF004007405E
:102D2000014007409187FF1F08B003400CB00340EB
:102D300008B00B400CB00B4073A3FF1F20B0034042
:102D400020B00B409287FF1F24B0034024B00B40FB
:102D500072A3FF1FF0B44D1E2E46002400E0013484
:102D6000B0FBF2F302FB1300092800F130078ABF21
:102D70003730F8B2C0B206F8010F1846002BEED17A
:102D80000A1953704CB1107815F8016F287001338F
:102D9000E01A834202F80169F5DB0846F0BC70478F
:102DA0002DE9F84F2C4B1B6807460BB101221A7016
:102DB000DFF8BC90DFF8BC8099F80040D8F800300C
:102DC000264D274E01349C422ABF4FF0000A5FFA7D
:102DD00084FA5446AB462B78A3421CD1FEF796FDED
:102DE00040282BDC33791B06F5D59BF80030D8F84A
:102DF0000010DBB25A1C8A4225D23F2A29D9194930
:102E00003F3B0968CB5CD1B2DBB2DBB2F371297016
:102E10002B78A342E2D03F2C8ABF124B124B1B6887
:102E2000124988BF403CFFB21F550D4B0120BC2208
:102E3000087089F800A0DA70BDE8F88FFF28CADDB5
:102E4000FFF7A2FEC7E700210A46074B9B5CDBB2F7
:102E5000DBE7D1B2F9E700BF0CA4FF1F05A4FF1FF9
:102E600000A00640C0A3FF1F7CA3FF1F04A4FF1FF8
:102E700010A4FF1FA087FF1F2B4A2C491368F0B531
:102E800043F4806313600A78294F2A4E2A4D2B4C55
:102E90002B4900233B7033702B7023700B70002A7A
:102EA0003DD0152A21D0274B1B78012B25D0052B8F
:102EB00030D01F2827D8002002460125224B234C62
:102EC0001A7023495D7004224FF0020E88273C26B9
:102ED000402598729A704FF4005083F813E05A75A9
:102EE0001F74DE7025700860F0BD1A4B40F213327B
:102EF0001A60144B1B78012BD9D1174B4FF4517228
:102F00001F281A60D7D9C0F34432C0F3471500F028
:102F10001F00D3E7114B4FF451721A60C9E7104BF1
:102F200040F213321A60BEE734800440BCA3FF1F96
:102F300078A3FF1F79A3FF1F10A4FF1F05A4FF1F85
:102F400004A4FF1FA487FF1F00A006402DE400E09B
:102F500004E100E018C0044044A004401CC0044048
:102F600040A00440234B23499B7803F0EC0200F07F
:102F700003031343420700F00F0248BF43F010035E
:102F8000042A8B702ED01B4B1A4A5B79C10603F0C2
:102F9000EF0348BF43F0100353719379820603F0A7
:102FA000EF03144A48BF43F0100310F4007093710C
:102FB00005D1114B114A1968914218D0704730B4AD
:102FC00091780F4D0F4B0C480C4C41F0A0019170C3
:102FD0002A78046003EBC20340F247325B6830BCDE
:102FE0001A6070478B7943F040038B71CBE7186010
:102FF000704700BF00A006400CA4FF1FD400D442BD
:10300000A487FF1FB0440000234B1B685B0541D51C
:1030100010B5224C237823B1FFF7B6FD2378002B9F
:10302000FAD11F481F4A204B4FF40054002104607E
:10303000D1701B78FBB1152B03D11C4B40F203124E
:103040001A601B4B1B7803F07F03012B1DD0052B4F
:1030500003D1184B40F203121A60174A114B17485C
:10306000174912681C79DB79002303700B700AB1D1
:103070000123137010BD134B40F203121A600C4B66
:103080001B7803F07F03012BE1D10F4B40F20312B9
:103090001A60E2E7704700BF3480044004A4FF1FB9
:1030A00084E100E000A00640BCA3FF1F18C004405C
:1030B000A487FF1F1CC0044074A3FF1F78A3FF1F39
:1030C00079A3FF1F40A0044044A004400A4A38B539
:1030D0000546137803F0FF04002BFAD1012128469E
:1030E000FEF7A8FC21462846FEF79EFC034A044B47
:1030F00052F835201A6038BD04A4FF1FB044000008
:103100000CA4FF1F09B140F08000174A13789842C1
:1031100016D010B4154C246864050FD503F07F0356
:10312000012B1CD0052B11D0002900F07F0114BF0A
:103130006023442301290DD0052902D0107010BC52
:1031400070470B4943F440730B60F7E7084B0024CA
:103150001C60E9E7074943F440730B60EEE7054B59
:1031600000241C60E0E700BFA487FF1F34800440F8
:103170001CC0044044A00440104B1A7882420AD07C
:103180000F490968490505D5AAB1152A09D068B1C2
:10319000152801D0187070470A4A40F213311160A7
:1031A000F8E7084A002111600028F1D1064A40F2F0
:1031B00013311160EEE704490A60E8E7BCA3FF1F82
:1031C0003480044018C0044040A004400D4B1B68EC
:1031D00013F4806305D0212805D90B4B002018601B
:1031E000704718467047094B10B5074C53F83030FC
:1031F00023600121FEF71EFC236800221A700120C3
:1032000010BD00BF3480044074A3FF1FB044000011
:103210000F4B1B6813F4806308D0122808D01428C1
:1032200011D00C4A537B03F0FE0353730020704708
:10323000094B40F202321A60064A537B43F0010305
:10324000537301207047054B40F202321A60F3E7D6
:103250003480044000A006400CA0044014C0044088
:10326000034B1B685B0501D5FFF79ABD704700BF94
:10327000348004403E4B1B685A0575D52DE9F04F4C
:103280003C4B1B6883B00BB101221A704318984263
:10329000019363D2DFF8F080DFF8F090364CDFF86E
:1032A000F0B0364F451C18E0227892455FFA8AF656
:1032B00029D0BAF13F0F1ED9DBF8002015F8011C08
:1032C000AAF14003D1542A462D4901230B701D4415
:1032D000019B88F800609A4240D298F80030D9F8F3
:1032E000002003F1010A9245DED3237803F0FF06A4
:1032F00043B10026B246234B15F8012C03F80A20EF
:103300002A46E1E7B246BC22FA7005E03A79130694
:103310000BD422785245CCD1FEF7F8FA4028F5DDDF
:10332000FF28F6DDFFF730FCF3E72278D9F800102C
:10333000D2B2501C88420BD23F2816D9DBF80010BD
:103340003F3A8A5CC1B2D2B2D2B2FA712170E0E7E0
:10335000002108460B4B1A5CD2B2F5E7074BBC22A2
:10336000DA7003B0BDE8F08F7047C1B2F2E700BF7A
:10337000348004400CA4FF1F05A4FF1F00A00640DA
:1033800004A4FF1F7CA3FF1F10A4FF1FA087FF1F23
:10339000C0A3FF1F10B5044C237823B1FFF7F4FB43
:1033A0002378002BFAD110BD04A4FF1F084B094A53
:1033B0001B781078DBB2C0B2834202D20138C01A47
:1033C0007047054A1268013A1044C01A704700BF9E
:1033D00010A4FF1F05A4FF1FA087FF1F064A074B6D
:1033E00010781B78C0B2DBB2984202D2044A12684D
:1033F0001044C01A704700BF78A3FF1F79A3FF1FB6
:103400009487FF1F70B4184B184D1B782A78D9B2D7
:10341000D2B2914222D0164B1C68531CA34214D343
:10342000002213461348C05CC0B2134E2A703268A3
:103430004AB1994238BF0919CB1A104909688B4221
:1034400001D80023137070BC70473F2B09D90C487A
:103450003F3A0068805CDAB2C0B2E6E74FF0FF3076
:10346000F1E7DAB2DEE700BF78A3FF1F79A3FF1F01
:103470009487FF1FC4A3FF1F74A3FF1F9887FF1F1C
:1034800008A4FF1F0D4A0E4B12781B78DBB29A423C
:1034900011D00C4A11685A1C8A4204D300220A4BEC
:1034A000985CC0B270473F2AF9D9084A3F3B12687E
:1034B000D05CC0B270474FF0FF30704778A3FF1F59
:1034C00079A3FF1F9487FF1FC4A3FF1F08A4FF1F3A
:1034D0000D4B1B685B0516D530B40C4B0C4CDA78E1
:1034E0000C480D4902F0CB024025DA705D74DA78A1
:1034F00042F03402DA7023780268DBB20B700AB152
:103500000023137030BC70473480044000A0064094
:1035100079A3FF1F74A3FF1F78A3FF1F2DE9F041BC
:10352000504A137913F0300F44D072B6937D03F0F4
:10353000FF01002B57D062B6DFF858814A4B4B4D44
:1035400098F800004A4C1B782F68D4F800C0DFF8C8
:1035500048E11546C0B2DEB20CE09642A0F13F044D
:1035600004D03F2A7CD90CF8043010464A1E12F0D1
:10357000FF010DD0EB79421CBA42DBB2EDD3002E35
:10358000F4D000204A1E12F0FF010EF80030F1D1F5
:10359000384B1A68C3B288F800305AB13649B04285
:1035A00038BFBB1B09682CBF831B1B188B4224BF71
:1035B000012313702B48C178C9B20D0618D44A06EE
:1035C0000FD5284B1B795B060BD52C4B2C491B6860
:1035D00000220A7003B11A70224B3C22DA70BDE857
:1035E000F081BDE8F0814023D179537462B6E1E700
:1035F00003791C06E3D5234BDFF8A0E01D789EF885
:103600000030EDB2DBB29D421ED01F4C1F4A26682F
:10361000D2F800C01E4F0DE03F2C02791ED91CF8D5
:1036200003202346D2B2D2B2C271027D072A0BD840
:103630009D4209D05C1CA642A3F13F03ECD803795C
:103640000023FA5CD2B2EEE7DBB2064A8EF8003015
:103650001379180644BF7C23D370B0E72346F0E704
:1036600010468FE700A0064079A3FF1F9487FF1F35
:1036700008A4FF1F74A3FF1F9C87FF1F0CA4FF1F3C
:1036800004A4FF1F10A4FF1FA087FF1FC0A3FF1FDC
:103690007CA3FF1F78A3FF1FC4A3FF1F05A4FF1F68
:1036A000084B1860084B50B101F140021A60074AFC
:1036B000074B01F11A002831106019607047402251
:1036C0001A60F4E708A4FF1F9487FF1F9887FF1F65
:1036D0009C87FF1F044B1860044B10B140311960E8
:1036E000704740221A607047C0A3FF1FA087FF1FCA
:1036F00070B584B072B6194B194D1A487022412624
:103700000F2480211A702E701A46047019701378D5
:103710001B06FCD5144B186862B6144B144C984227
:1037200098BF00EB800001A998BF40000A22FFF774
:1037300011FB01A92046002311F8012B01333AB1F6
:103740000A2B20F8022FF7D11623237004B070BD86
:103750005B00DBB2237004B070BD00BF000002400C
:103760000700024006000240080002407F969800D1
:103770003488FF1F70B4104E104D3478CCB12B68D4
:10378000984214D02A46002303E052F8041F8142D5
:103790000DD00133DBB2A342F7D15A1CD2B2084993
:1037A00045F823000B78327043F002030B7070BCB5
:1037B000704723460122F2E720A4FF1F14A4FF1F35
:1037C0009087FF1F704700BF014B1868704700BF0C
:1037D000788CFF1F70B50F4E0F4D761BB61018BFBB
:1037E000002405D0013455F8043B9847A642F9D18E
:1037F0000A4E0B4D761B00F05BFFB61018BF00247D
:1038000006D0013455F8043B9847A642F9D170BD63
:1038100070BD00BFBC460000BC460000CC460000A6
:10382000BC460000024B0146186800F00BB800BF10
:10383000788CFF1F024B0146186800F041BC00BFA6
:10384000788CFF1F2DE9F04F01F10B05162D83B089
:10385000064640F29F8035F0070500F1BF80A9427F
:1038600000F2BC8000F026FBB5F5FC7FC0F09C8226
:103870006B0A00F0BA80042B00F28381A80900F1E2
:10388000390E4FEA4E033830C44F07EB8303A3F1E0
:1038900008015C68A14207D1ACE0002A80F2AC804C
:1038A000E468A14200F0A680636823F003035A1B7A
:1038B0000F2AF2DDB9493C6901F1080E744500F0A8
:1038C000B381636823F003035A1B0F2A00F3998125
:1038D000002AC1F814E0C1F810E080F29E80B3F530
:1038E000007F80F06781DB0803F1010C01229B104F
:1038F00002FA03F34A6851F83C80C4F8088001EBEF
:10390000CC091A43A9F10803E3604A6041F83C403E
:10391000C8F80C40831001249C40944200F28A8035
:10392000144206D120F003006400144200F10400A8
:10393000FAD007EBC009CC468046DCF80C108C4569
:1039400007D173E1002A80F28181C9688C4500F0BB
:103950006D814B6823F003035A1B0F2AF2DD0C46DE
:10396000D1F80CC054F8088F4B1945F001054D6093
:1039700042F00101C8F80CC03046CCF808807B61E9
:103980003B61C3F80CE0C3F808E059609A5000F0BE
:1039900093FA1FE0102921D800F08CFA1025062395
:1039A00002207E4F07EB8303A3F108025C68944278
:1039B00000F045816368E168A56823F003032344B0
:1039C00030465A68E96042F001028D605A6000F0AA
:1039D00073FA0834204603B0BDE8F08F00240C23AE
:1039E0002046336003B0BDE8F08F80234FF0400ED7
:1039F0003F2049E770465DE72344E1685A68A568BF
:103A000042F00102E96030468D605A6000F054FADD
:103A10000834204603B0BDE8F08F234430465A688E
:103A200042F001025A6000F047FA0834204603B021
:103A3000BDE8F08FBC68636823F00308A84504D391
:103A4000C5EB08030F2B00F38C80554BDFF860911A
:103A50001A68D9F8003001332A4404EB080A00F050
:103A6000608102F580520F3222F47F6222F00F0251
:103A700011463046019200F021FAB0F1FF3F834633
:103A8000019A00F05881824500F2FC80454B19688C
:103A9000DA451144196000F05381D9F80000DFF8CD
:103AA00010E101301BBFCAEB0B0A5144CEF800B045
:103AB00019601BF0070100F01781C1F10800C1F582
:103AC0008051834408315A44C2F30B02C2EB01090E
:103AD00049463046019300F0F1F9431C019B00F088
:103AE0003F81CBEB00024A4442F001021968C7F85B
:103AF00008B04944BC42CBF804201960DFF8A49018
:103B000016D0B8F10F0F40F2FD806268A8F10C03E7
:103B100023F00703E01802F001024FF0050E1A43EC
:103B20000F2B6260C0F804E0C0F808E000F21C81CE
:103B30001D4BBC681A68914288BF19601B4B1A68FC
:103B40009142626888BF196022F003029542A2EB9D
:103B5000050301D80F2B04DC304600F0ADF900243A
:103B600038E7621943F0010345F00105656030460E
:103B7000BA60536000F0A0F90834204603B0BDE8F5
:103B8000F08F142B71D9542B00F2A480280B00F174
:103B90006F0E4FEA4E036E3076E600BF7C8CFF1F3F
:103BA0002CA4FF1F30A4FF1F28A4FF1F24A4FF1F65
:103BB0008890FF1F5A0A042A5ED9142A00F2B380A3
:103BC00002F15C0149005B3207EB810C57F82110D0
:103BD000DFF8DC81ACF1080C8C4500F088804A6885
:103BE00022F00302934202D289688C45F7D1D1F8C2
:103BF0000CC07A68C4F80CC0A160CCF80840CC6056
:103C000088E6631942F0010745F00105656030461A
:103C10004B610B61C3F80CE0C3F808E05F609A5099
:103C2000083400F049F9D5E64A6873E608F101085E
:103C300018F0030F0CF1080C7FF47FAE30E0DC6865
:103C4000A34208BF02303FF435AEB3E60B440C4646
:103C50005A68C96854F8085F42F001025A60304659
:103C6000E9608D6000F028F9B4E603F15C0E03F121
:103C70005B004FEA4E0307E69A0902F13901490059
:103C80003832A1E7BC424A4B3FF400AF9C686268FF
:103C900022F003025AE759F80839994540F082802A
:103CA00010F0030F00F1FF30F5D17B6823EA040325
:103CB0007B6064009C423FF6BDAE002C3FF4BAAE80
:103CC0001C4240467FF435AE64001C4200F1040003
:103CD000FAD02EE6B3F5AA7F18D8E80B00F1780EDB
:103CE0004FEA4E037730CFE54FF48051EBE60121E8
:103CF000D8F80430921001FA02F21A43C8F80420EE
:103D0000614677E70123CBF8043025E740F25452AF
:103D1000934220D8A80C00F17D0E4FEA4E037C3070
:103D2000B2E51032A4E6542A26D81A0B02F16F012C
:103D300049006E3248E7BC68626822F0030205E77A
:103D4000CAF30B0000287FF4A8AE4244BB6842F0DF
:103D500001025A60ECE6FE234FF07F0E7E2093E5D1
:103D600001224FF00009C1E604F10801304600F0DD
:103D7000A7F9D9F80010DBE6B2F5AA7F05D8DA0B6F
:103D800002F17801490077321EE740F254518A422D
:103D900005D89A0C02F17D0149007C3214E7FE211E
:103DA0007E2211E77B6884E7E808431C5B00F8E5A6
:103DB0007C8CFF1F032A70B426D940EA01039B07BD
:103DC00011D004780D78AC4222D10244431C05E0A6
:103DD00013F8014B11F8015FAC4219D19342F7D1AE
:103DE000002070BC70470C4603461E682568AE4232
:103DF0001846214603F1040304F10404E1D1043A16
:103E0000032A18462146F0D8002ADAD11046E8E7FE
:103E1000601B70BC704700BF70B4840746D0541E4E
:103E2000002A41D0CDB2034602E0621EE4B314463C
:103E300003F8015B9A07F8D1032C2ED9CDB245EADD
:103E400005250F2C45EA054519D903F11002264630
:103E5000103E0F2E42F8105C42F80C5C42F8085CF1
:103E600042F8045C02F11002F2D8A4F1100222F030
:103E70000F0204F00F041032032C13440DD91E4618
:103E80002246043A032A46F8045BFAD8221F22F09D
:103E900003020432134404F003042CB1C9B21C44DD
:103EA00003F8011BA342FBD170BC704714460346C4
:103EB000C2E700BF704700BF704700BF38B5074C6E
:103EC0000023054608462360FDF70AFD431C00D089
:103ED00038BD2368002BFBD02B6038BD6CA4FF1FBE
:103EE000FFFFFFFFFFFFFFFFFFFFFFFFFFFFFFFFE2
:103EF000FFFFFFFFFFFFFFFFFFFFFFFFFFFFFFFFD2
:103F000090F800F06DE9024520F007016FF0000C19
:103F100010F0070491F820F040F049804FF00004C1
:103F20006FF00700D1E9002391F840F000F108009C
:103F300082FA4CF2A4FA8CF283FA4CF3A2FA8CF3D4
:103F40004BBBD1E9022382FA4CF200F10800A4FA3B
:103F50008CF283FA4CF3A2FA8CF3E3B9D1E904238F
:103F600082FA4CF200F10800A4FA8CF283FA4CF3C6
:103F7000A2FA8CF37BB9D1E9062301F1200182FA80
:103F80004CF200F10800A4FA8CF283FA4CF3A2FA86
:103F90008CF3002BC6D0002A04BF04301A4612BA94
:103FA000B2FA82F2FDE8024500EBD2007047D1E997
:103FB000002304F00305C4F100004FEAC50514F026
:103FC000040F91F840F00CFA05F562EA05021CBFF7
:103FD00063EA050362464FF00004A9E7024B13B100
:103FE000024800F005B8704700000000FD3F0000E7
:103FF000002301461A46184600F04AB938B5074D65
:10400000074C2C1BA41005D0013C55F8043D9847E3
:10401000002CF9D1BDE8384000F058BB000000008A
:1040200000000000F8B5234F0C460646FFF742FF9C
:10403000BB685D6825F00305291B01F6EF7121F4CB
:104040007F6121F00F01A1F58054B4F5805F07DB9B
:1040500000213046FFF732FFBB682B44984204D062
:104060003046FFF729FF0020F8BD61423046FFF7D8
:1040700025FF01300DD0104BBA6819682D1B45F093
:1040800001053046091B55601960FFF715FF012037
:10409000F8BD00213046FFF711FFBA68831A0F2BD5
:1040A000DEDD064C0449246843F00103001B536025
:1040B0000860D5E77C8CFF1F30A4FF1F8890FF1F8E
:1040C000002945D02DE9F0410D468046FFF7F2FE6C
:1040D00055F8047C6A4927F00103A5F10804E218A9
:1040E0008E685068B24220F0030062D0FE07506034
:1040F0000BD455F8087CE41B01F1080EA568754542
:104100003B446FD0E768EF60BD6015186D68ED0740
:1041100042D543F001026260E350B3F5007F18D24C
:10412000DB085A1C4D6851F83270A76001209B10C3
:1041300000FA03F301EBC2001D430838E0604D6054
:1041400041F83240FC604046BDE8F041FFF7B4BEA4
:1041500070475A0A042A53D89A0902F139077F0096
:1041600002F1380501EB870051F82720444908384F
:1041700090424DD0516821F003018B4202D29268E7
:104180009042F7D1D068E060A2608460D46040467D
:10419000BDE8F041FFF790BE95683A4FBD42034439
:1041A0003FD0D068E86043F0010285606260E35070
:1041B000B3E7FF07034407D455F8082CA41A1344A7
:1041C000A068E268C26090602F4A126843F0010064
:1041D000934260608C60B6D32C4B40461968FFF761
:1041E00021FFB0E711184968C90744D49168D26823
:1041F000CA60034443F0010091606060E350A2E7AD
:10420000142A17D802F15C077F0002F15B05A9E7C9
:10421000AA104B68012505FA02F213434B600246CF
:10422000B1E743F001024C610C61E560A56062609A
:10423000E35088E7542A06D81A0B02F16F077F0073
:1042400002F16E058EE7B2F5AA7F06D8DA0B02F10D
:1042500078077F0002F1770584E740F254508242EC
:1042600006D89A0C02F17D077F0002F17C0579E700
:10427000FE277E2576E743F001026260E35062E7A5
:104280007C8CFF1F848CFF1F8490FF1F2CA4FF1FBA
:104290002DE9F047254C2568D5F848410646884663
:1042A00092469946C4B360681F2817DC431C76B158
:1042B00004EB80050122C5F888A0D4F8881182405B
:1042C0001143022EC4F88811C5F808911ED002309F
:1042D000636044F820800020BDE8F087144B03B3EE
:1042E0004FF4C870FFF79EFA0446D0B1D5F84831B4
:1042F000002780E88800C5F8484138460123C4F803
:104300008871C4F88C71002EE1D0D1E7D4F88C11FB
:104310000A43C4F88C21DAE705F5A674C5F84841CC
:10432000C1E74FF0FF30BDE8F08700BFAC460000AA
:10433000253800000000000000000000110500000A
:1043400000000000000000006D040000B505000042
:104350008D04000091040000B1040000D1040000AD
:10436000F1040000AABBCCDD00000000000000004A
:1043700001080000000102030405060708090A0BF2
:104380000C0D0E0F101112131415161718191A1BF5
:104390001C1D1E1F202122232425262728292A2BE5
:1043A0002C2D2E2F303132333435363738393A3BD5
:1043B0003C3D3E3F404142434445464748494A4BC5
:1043C0004C4D4E4F505152535455565758595A5BB5
:1043D0005C5D5E5F606162636465666768696A6BA5
:1043E0006C6D6E6F707172737475767778797A7B95
:1043F0007C7D7E7F808182838485868788898A8B85
:104400008C8D8E8F909192939495969798999A9B74
:104410009C9D9E9FA0A1A2A3A4A5A6A7A8A9AAAB64
:10442000ACADAEAFB0B1B2B3B4B5B6B7B8B9BABB54
:10443000BCBDBEBFC0C1C2C3C4C5C6C7C8C9CACB44
:10444000CCCDCECFD0D1D2D3D4D5D6D7D8D9DADB34
:10445000DCDDDEDFE0E1E2E3E4E5E6E7E8E9EAEB24
:10446000ECEDEEEFF0F1F2F3F4F5F6F7F8F9FAFB14
:10447000FCFDFEFF41626F727420696E2043414E65
:1044800020626567696E2E20436F756C646E2774B9
:104490002066696E642061207375697461626C6561
:1044A000206261756420636F6E6669672100000099
:1044B0004008FE4340A004404408FE4344A004409A
:1044C0000018FE4300C004403000FE43309004401A
:1044D0003400FE43349004401C18FE431CC00440CA
:1044E0001018FE4310C004400818FE4308C00440E2
:1044F0000C18FE430CC004400C10FE430CB00440EA
:104500001010FE4310B004401810FE4318B00440D1
:104510001C10FE431CB004401410FE4314B00440B1
:104520000418FE4304C004400010FE4300B00440E1
:104530000008FE4300A004400408FE4304A0044019
:104540000C08FE430CA004400808FE4308A00440E9
:104550001418FE4314C004401818FE4318C0044049
:104560000410FE4304B004400810FE4308B00440A9
:104570001400FE43149004404C08FE434CA0044039
:104580000420FE4304D004402410FE4324B0044021
:104590002010FE4320B004402810FE4328B0044001
:1045A0002C10FE432CB004400020FE4300D00440F9
:1045B0004808FE4348A004401000FE431090044009
:1045C0000000000000000000652A0000892A0000A9
:1045D000192B0000152B0000112B00000D2B0000E3
:1045E000092B00002D2A0000E92A0000E52A00001E
:1045F000DD2A0000D52A0000CD2A0000BD2A0000D7
:10460000AD2A0000A92A0000A12A0000992A000072
:104610000D2A0000152A00001D2A0000252A00008E
:10462000712A0000592A00000D0AFFFF0000000057
:1046300000000000812B0000792B0000752B00008A
:10464000712B00006D2B0000692B0000652B000012
:10465000612B00000015191500010000A887FF1F3D
:104660001200000000020000D487FF1F430000007A
:10467000000300003088FF1F000000000103090450
:10468000BC87FF1F00000000020309041888FF1FF9
:1046900000000000030309043488FF1F000000002D
:1046A0000000000000000000000000005088FF1F14
:1046B000F8B500BFF8BC08BC9E467047DD3F00005F
:0C46C0003504000059070000CD16000072
:0446CC00F8B500BF7E
:1046D00000000101000101010102010102020102C9
:1046E000030102030202040202050202050302069C
:1046F0000302070302070403070403070504070571
:10470000040706050706060706060707070707004A
:1047100070A4FF1FFFFFFFFFC8450000000000005E
:10472000E8030000000000005D2B00000100000015
:104730003446000000000000E80300000000000014
:10474000010A0400400000001A00000028000000D8
:1047500040000000010000001201100102000040B2
:10476000C0168304750201020301000018035400FF
:10477000650065006E0073007900640075006900D3
:104780006E006F0009024300020100C032090400FC
:1047900000010202010005240010010524010101AD
:1047A00004240206052406000107058203100040C8
:1047B00009040100020A000000070503024000008E
:1047C0000705840240000000160355005300420014
:1047D0002000530065007200690061006C00000059
:1047E000040309040C0300000000000000000000A6
:1047F00000000000000000000000010000000000B8
:10480000000000003C8BFF1FA48BFF1F0C8CFF1FC0
:104810000000000000000000000000000000000098
:104820000000000000000000000000000000000088
:104830000000000000000000000000000000000078
:104840000000000000000000000000000000000068
:104850000000000000000000000000000000000058
:104860000000000000000000000000000000000048
:104870000000000000000000000000000000000038
:104880000000000000000000000000000000000028
:104890000000000000000000000000000000000018
:1048A0000000000000000000010000000000000007
:1048B0000E33CDAB34126DE6ECDE05000B000000CC
:1048C00000000000000000000000000000000000E8
:1048D00000000000000000000000000000000000D8
:1048E00000000000000000000000000000000000C8
:1048F00000000000000000000000000000000000B8
:104C200000000000000000005088FF1F000000008E
:104C3000000000007C8CFF1F7C8CFF1F848CFF1FFA
:104C4000848CFF1F8C8CFF1F8C8CFF1F948CFF1F8C
:104C5000948CFF1F9C8CFF1F9C8CFF1FA48CFF1F3C
:104C6000A48CFF1FAC8CFF1FAC8CFF1FB48CFF1FEC
:104C7000B48CFF1FBC8CFF1FBC8CFF1FC48CFF1F9C
:104C8000C48CFF1FCC8CFF1FCC8CFF1FD48CFF1F4C
:104C9000D48CFF1FDC8CFF1FDC8CFF1FE48CFF1FFC
:104CA000E48CFF1FEC8CFF1FEC8CFF1FF48CFF1FAC
:104CB000F48CFF1FFC8CFF1FFC8CFF1F048DFF1F5B
:104CC000048DFF1F0C8DFF1F0C8DFF1F148DFF1F08
:104CD000148DFF1F1C8DFF1F1C8DFF1F248DFF1FB8
:104CE000248DFF1F2C8DFF1F2C8DFF1F348DFF1F68
:104CF000348DFF1F3C8DFF1F3C8DFF1F448DFF1F18
:104D0000448DFF1F4C8DFF1F4C8DFF1F548DFF1FC7
:104D1000548DFF1F5C8DFF1F5C8DFF1F648DFF1F77
:104D2000648DFF1F6C8DFF1F6C8DFF1F748DFF1F27
:104D3000748DFF1F7C8DFF1F7C8DFF1F848DFF1FD7
:104D4000848DFF1F8C8DFF1F8C8DFF1F948DFF1F87
:104D5000948DFF1F9C8DFF1F9C8DFF1FA48DFF1F37
:104D6000A48DFF1FAC8DFF1FAC8DFF1FB48DFF1FE7
:104D7000B48DFF1FBC8DFF1FBC8DFF1FC48DFF1F97
:104D8000C48DFF1FCC8DFF1FCC8DFF1FD48DFF1F47
:104D9000D48DFF1FDC8DFF1FDC8DFF1FE48DFF1FF7
:104DA000E48DFF1FEC8DFF1FEC8DFF1FF48DFF1FA7
:104DB000F48DFF1FFC8DFF1FFC8DFF1F048EFF1F56
:104DC000048EFF1F0C8EFF1F0C8EFF1F148EFF1F03
:104DD000148EFF1F1C8EFF1F1C8EFF1F248EFF1FB3
:104DE000248EFF1F2C8EFF1F2C8EFF1F348EFF1F63
:104DF000348EFF1F3C8EFF1F3C8EFF1F448EFF1F13
:104E0000448EFF1F4C8EFF1F4C8EFF1F548EFF1FC2
:104E1000548EFF1F5C8EFF1F5C8EFF1F648EFF1F72
:104E2000648EFF1F6C8EFF1F6C8EFF1F748EFF1F22
:104E3000748EFF1F7C8EFF1F7C8EFF1F848EFF1FD2
:104E4000848EFF1F8C8EFF1F8C8EFF1F948EFF1F82
:104E5000948EFF1F9C8EFF1F9C8EFF1FA48EFF1F32
:104E6000A48EFF1FAC8EFF1FAC8EFF1FB48EFF1FE2
:104E7000B48EFF1FBC8EFF1FBC8EFF1FC48EFF1F92
:104E8000C48EFF1FCC8EFF1FCC8EFF1FD48EFF1F42
:104E9000D48EFF1FDC8EFF1FDC8EFF1FE48EFF1FF2
:104EA000E48EFF1FEC8EFF1FEC8EFF1FF48EFF1FA2
:104EB000F48EFF1FFC8EFF1FFC8EFF1F048FFF1F51
:104EC000048FFF1F0C8FFF1F0C8FFF1F148FFF1FFE
:104ED000148FFF1F1C8FFF1F1C8FFF1F248FFF1FAE
:104EE000248FFF1F2C8FFF1F2C8FFF1F348FFF1F5E
:104EF000348FFF1F3C8FFF1F3C8FFF1F448FFF1F0E
:104F0000448FFF1F4C8FFF1F4C8FFF1F548FFF1FBD
:104F1000548FFF1F5C8FFF1F5C8FFF1F648FFF1F6D
:104F2000648FFF1F6C8FFF1F6C8FFF1F748FFF1F1D
:104F3000748FFF1F7C8FFF1F7C8FFF1F848FFF1FCD
:104F4000848FFF1F8C8FFF1F8C8FFF1F948FFF1F7D
:104F5000948FFF1F9C8FFF1F9C8FFF1FA48FFF1F2D
:104F6000A48FFF1FAC8FFF1FAC8FFF1FB48FFF1FDD
:104F7000B48FFF1FBC8FFF1FBC8FFF1FC48FFF1F8D
:104F8000C48FFF1FCC8FFF1FCC8FFF1FD48FFF1F3D
:104F9000D48FFF1FDC8FFF1FDC8FFF1FE48FFF1FED
:104FA000E48FFF1FEC8FFF1FEC8FFF1FF48FFF1F9D
:104FB000F48FFF1FFC8FFF1FFC8FFF1F0490FF1F4C
:104FC0000490FF1F0C90FF1F0C90FF1F1490FF1FF9
:104FD0001490FF1F1C90FF1F1C90FF1F2490FF1FA9
:104FE0002490FF1F2C90FF1F2C90FF1F3490FF1F59
:104FF0003490FF1F3C90FF1F3C90FF1F4490FF1F09
:105000004490FF1F4C90FF1F4C90FF1F5490FF1FB8
:105010005490FF1F5C90FF1F5C90FF1F6490FF1F68
:105020006490FF1F6C90FF1F6C90FF1F7490FF1F18
:0C5030007490FF1F00000200FFFFFFFF54
:00000001FF
